:020000040800F2
:1000000018330020291701084D180108511801085C
:1000100055180108591801085D1801080000000072
:10002000000000000000000000000000117800083F
:100030006118010800000000B57700087FC00008C3
:1000400065180108691801086D1801087118010880
:1000500075180108791801087D1801088118010830
:1000600085180108891801088D18010891180108E0
:1000700095180108991801089D180108A118010890
:10008000A5180108A9180108AD180108B118010840
:10009000B5180108B9180108BD180108C1180108F0
:1000A000C5180108C9180108CD180108D1180108A0
:1000B000D5180108D9180108DD180108E118010850
:1000C000E5180108E9180108ED180108F118010800
:1000D000F5180108F9180108FD18010801190108AF
:1000E00005190108091901080D190108111901085C
:1000F00015190108191901081D190108211901080C
:1001000025190108291901082D19010831190108BB
:1001100035190108391901083D190108411901086B
:1001200045190108491901084D190108511901081B
:1001300055190108591901085D19010861190108CB
:1001400065190108691901086D190108711901087B
:1001500075190108791901087D190108811901082B
:1001600085190108891901088D19010891190108DB
:1001700095190108991901089D190108000000004E
:10018000A1190108A5190108A9190108AD1901084B
:10019000B1190108B5190108B9190108BD190108FB
:1001A0004FED0008C1190108A5ED0008C5190108A7
:1001B000C9190108CD190108D1190108D51901087B
:1001C000D9190108DD19010810B5044608220021DB
:1001D00001F022FCDFF8003E002223602046A260EE
:1001E000E26022616261A261E26122626262A262F5
:1001F000E26222636263A263E26322646264A264D5
:10020000E26422656265A265E26522666266A266B4
:10021000E2662267626710BD2DE9F84F88B080461C
:10022000139C91469A46200000F039810D462846DD
:1002300001F0A8FC0746284601F072FCADF8140056
:100240002846ADF81090ADF812A0ADF8167001F088
:10025000D3FD90B1284601F0CFFD02280DD02846ED
:1002600001F0CAFD0B2808D0DFF8700D4F2200F115
:10027000A80101F005FEAFF30080284601F042FD21
:100280008146284601F06CFD8246129F284601F007
:10029000B3FD022807D123463A4604A9484600F098
:1002A00003F901F0B5BB284601F0A6FD0B2808D1E3
:1002B00000943B4604AA5146484600F0FAF901F082
:1002C000A7BB284601F0E3FC60B9009449460190C1
:1002D000D8F800403B4604AA4046D4F81090C847DE
:1002E00001F096BB2946684601F07BFCB7F9001087
:1002F000B888BDF900E0BDF90430BDF90220BDF9B0
:100300000650401806B2B645BEBF73441EB2B14295
:1003100014DAB7F90260B7F806B0B344ADF800B02C
:10032000BDF900B05A45BEBF05EB020B0FFA8BFBBF
:100330005E4503DA7145A8BF8E4605E04FF0000E1A
:1003400000260023002217E0B7F9021016460FFA24
:1003500080FC8E42B8BF0E4619B26145A8BF034665
:10036000AA187D88F88812B2A3EB0E0345192DB2A6
:10037000AA42C8BF2A46921BADF80C30BDF90C103A
:10038000ADF808E0ADF80A60ADF80E2000291CBFFA
:10039000BDF90E00002800F0848000944046002142
:1003A00002AB0191D8F800C004AA4946DCF81080DD
:1003B000C047BDF90A20B7F90200904213DAB7F935
:1003C0000010B7F90430121AADF81A00ADF8181081
:1003D0005146ADF81C3006ABADF81E2004AA0094BF
:1003E000484600F0B4FCB7F90000BDF90810884297
:1003F00015DABDF80830BDF90E20BDF90AE0ADF8F8
:100400001800ADF81E2004AAADF81AE051461B1AD8
:100410000094ADF81C3006AB484600F098FC3A88D2
:10042000B988BDF80830BDF80C008A1812B2C3189C
:1004300018B2904213DABDF90A00BDF90EE0D21AE3
:10044000ADF81830ADF81A0006ABADF81C2004AAC0
:10045000ADF81EE051460094484600F078FC7A88DA
:10046000F888BDF80A308218BDF80E0012B2C31821
:1004700018B2904213DAB7F90000B7F904E0ADF80A
:100480001A30D21AADF8180006ABADF81CE0ADF882
:100490001E20009404AA5146484600F058FC01F082
:1004A000B7BA00943B46F5E72DE9F84F88B005460A
:1004B00091460E46984606A8082201F0F3FC04A8CF
:1004C0004946082201F0EEFC06A801F0B7FD3146CE
:1004D00004A801F0C8FDBDF91230BDF91C10BDF92A
:1004E0001000BDF81820BDF91470BDF9169011FB6D
:1004F00003F1091805EB8104BDF81050BDF81A107E
:100500005519ADF81050DFF8D05C2868CB18ADF85D
:10051000123001680A6B9047B8F1FF0F3DD1800699
:100520003DD42868DFF8B46C01680A6A9047B6F8D1
:1005300000C0BDF91210BDF91030B9F1000F01FB78
:100540000CFC0CEB030100EB410640F3AC80DFF840
:100550008C2C4B460192224600970099002940F3CB
:1005600091800846D2F800E05FEA1E6100F08580C5
:10057000FF2908BFB8F1FF0F27D14FEA1E214FEA2C
:100580005E1C01F478410CF4FC6C4CEA0101CEF3E2
:10059000C40C4CEA010131806FE04006C1D5BDF8C2
:1005A0001C101FFA89F92868CDF80C800291BFB29F
:1005B000CDF80490214600970568BDF81230BDF8CB
:1005C0001020EE6BB04701F023BA18FB01F1B6F82A
:1005D00000C00C04240E14FA81F77F1C3F043F0E68
:1005E000C7F1FF014FEA1C2AC9B20AF0F80A11FB51
:1005F0000AFA4FEA0E244FEADC0B240E0BF0FC0B38
:100600004FEACC6C17FB04A44FEA0E4A11FB0BFB1C
:100610004FEA1A6A4FEA1C6C5FFA8EFE11FB0CF16E
:100620004FEA044C17FB0ABA4FEA1C6C1CFA84F41C
:10063000641C2404240E17FB0E114FEA0A4E4FEAE5
:100640001E6E1EFA8AFE0EF1010E4FEA0E4E4FEAA2
:10065000014C4FEA1E6E4FEA1C6C24024FEACE0E8C
:100660001CFA81F104F478440EF4FC6E491C4EEA45
:100670000404090454EAD1643480B61C121D401EDF
:100680007FF470AF0198DDF800C05B1E0188BDF9F2
:100690001C00A1EB0C0106EB4106A0EB0C0002EBE9
:1006A00080027FF45AAF286801684A6A904701F0D7
:1006B000AFB938B50D78049C3DB1022D01D008D3F7
:1006C00031BD009400F02CF931BD009400F005F824
:1006D00031BD009400F031FA31BD2DE9F04F8DB0FD
:1006E000044689469046B9F800001F4650B1DFF82D
:1006F000EC08EC2200F1A80100F5387001F0C0FB15
:10070000AFF300800BA84146082201F0CBFB09A8FB
:100710003946082201F0C6FB0BA801F08FFC4146C8
:1007200009A801F0A0FCBDF92630BDF93010BDF9D3
:100730002400DFF8A48ABDF82C20BDF928A0BDF95B
:100740002A5011FB03F109186618BDF82E10D8F8CD
:100750000000BDF82440CB18ADF826301419ADF8D0
:1007600024400168169CD1F88420904701283FD08E
:10077000D8F80000DFF8647A01680A6A9047B7F891
:1007800000C0BDF92610BDF92430012D01FB0CFC81
:100790000CEB030100EB4107C0F2B580DFF83C2A07
:1007A000CDF800A0019232462B4600990129C0F2F3
:1007B0009A80084692F800C009F1040151F82CE033
:1007C0005FEA1E6100F08A80FF2908BFFF2C2DD14F
:1007D0004FEA1E214FEA5E1C01F478410CF4FC6CD8
:1007E0004CEA0101CEF3C40C4CEA0101398075E0FA
:1007F0000020DFF8E82908901388BDF830000B21AD
:10080000012707910693ADB205971FFA8AFA04945F
:100810004A4603900295BDF82610BDF82430D8F85A
:10082000000000913146CDF804A074E014FB01F102
:10083000B7F800C04FEA0E252D0E0E04360E16FA3C
:1008400081F6761C3604360EC6F1FF014FEA1C2AEB
:10085000C9B20AF0F80A11FB0AFA4FEADC0B0BF0F6
:10086000FC0B4FEACC6C11FB0BFB4FEA1C6C16FB2C
:1008700005A54FEA0E4A4FEA1A6A11FB0CF15FFA1E
:100880008EFE16FB0ABA4FEA054C4FEA1C6C1CFAA6
:1008900085F56D1C2D0416FB0E114FEA0A4E4FEA2A
:1008A0001E6E1EFA8AFE0EF1010E4FEA0E4E4FEA40
:1008B000014C2D0E4FEA1E6E4FEA1C6C2D024FEAC2
:1008C000CE0E1CFA81F105F478450EF4FC6E491C3D
:1008D0004EEA0505090455EAD1653D80BF1C521C4E
:1008E000401E7FF467AF0198DDF800C05B1E0188F1
:1008F000BDF93000A1EB0C0107EB4107A0EB0C00A8
:1009000002447FF452AFD8F800000268516A884769
:1009100003E02146019601F06BFD0DB0BDE8F08FBC
:100920002DE9F04F8DB0814688461646B8F8000094
:100930001C4602280BD0DFF8A4064FF4A37200F186
:10094000A80100F54C7001F09BFAAFF30080DDF8D0
:1009500058A05FEA0A006CD009A83146082201F0CD
:10096000A1FA0BA82146082201F09CFA09A801F07F
:1009700065FB31460BA801F076FBBDF92E30BDF9C1
:100980002810BDF92C00BDF82420BDF93060BDF958
:10099000325011FB03F10918DFF83C08006809EB3D
:1009A0000104BDF82610BDF82C90CB18ADF82E3000
:1009B0009144ADF82C900168DFF82098D1F884209C
:1009C0009047012836D0DFF81008006801680A6AED
:1009D0009047B9F800C0BDF92E10BDF92C30BAF11E
:1009E000FF0F01FB0CFC0CEB030100EB41033BD1BF
:1009F000012D18DB2946012E0ADB304608F10402DE
:100A000014F801AB401E32F81AC023F802CBF7D11C
:100A1000BDF92820B9F80000921BA418801B491EBC
:100A200003EB4003E7D1DFF8B007006801684A6ACA
:100A3000904772E70020B9F8001008900B2305904A
:100A4000BDF828000793ADB20691B6B2CDF810A05C
:100A500042460390DFF880070295BDF82E10BDF8DE
:100A60002C300068009154E7012DCAF1FF01DADB58
:100A7000B44622462E46BCF1010F4FDB604612F809
:100A8000015B1C8808F1040E3EF815704FEA142E25
:100A90000EF0F80E11FB0EFE4FEAD40B0BF0FC0B20
:100AA000E4063D0A05F0F8051AFB05E54FEAD70E06
:100AB00011FB0BFB0EF0FC0E240EFF0611FB04F4E1
:100AC0003F0E1AFB0EBE1AFB07472C04240E14FA25
:100AD00085F44FEA0E452D0E15FA8EFE641C0EF1BC
:100AE000010E24044FEA0E4E4FEA074B240E4FEA44
:100AF0001E6E4FEA1B6B24024FEACE0E1BFA87F7DD
:100B000004F478440EF4FC6E7F1C4EEA04043F04A7
:100B100054EAD76423F8024B401EB0D1B9F8000064
:100B2000BDF928E0761EA0EB0C0003EB4003AEEB12
:100B30000C0E72443FF477AF9DE72DE9F04F8DB076
:100B4000064688469246B8F800001C4601280BD09D
:100B5000DFF8880440F2A11200F1A80100F56070EE
:100B600001F08EF9AFF30080DDF858905FEA0900DC
:100B700000F0EC800BA85146082201F093F909A877
:100B80002146082201F08EF90BA801F057FA5146D0
:100B900009A801F068FABDF92630BDF93010BDF999
:100BA0002400BDF82C20BDF92AA011FB03F109187F
:100BB000DFF8240600687418BDF82E10BDF8246014
:100BC000CB18ADF826309619ADF824600168BDF950
:100BD0002860D1F88420904701283CD0DFF8F80540
:100BE000006801680A6A9047DFF8F0C5BDF9261071
:100BF000BCF800E0BDF92430BAF1010F01FB0EFE94
:100C00000EEB030100EB4103C0F29A80C9F1FF0033
:100C1000C0B2524600902146012EC0F2818030467B
:100C20000C7808F1040EB9F1FF0F04EB440474448E
:100C300094F801C094F802E024782CD14FEA0E2EEB
:100C40004FEACC0C0EF4784E0CF4FC6C4CEA0E0C13
:100C50004CEAD40C5EE00020DFF880250890138871
:100C6000BDF830000B210791BDF826100693BDF8A2
:100C700024300390DFF86005006800914FF0010C0C
:100C80001FFA8AFAB6B2CDF814C0CDF810904246D9
:100C9000CDF808A03DE61D88009F4FEA152B0BF00C
:100CA000F80B07FB0BFB19FB0EBE4FEAD50B0BF045
:100CB000FC0BED0607FB0BFB2D0E6F4319FB0CBC69
:100CC00019FB04744FEA0E473F0E17FA8EFE4FEAE7
:100CD0000C452D0E15FA8CFC0EF1010E0CF1010CD9
:100CE0004FEA0E4E4FEA0C4C27044FEA1E6E4FEAB5
:100CF0001C6C3F0E4FEA0E2E4FEACC0C17FA84F410
:100D00000EF4784E0CF4FC6C641C4CEA0E0E2404B9
:100D10004EEAD46C491C401E23F802CB7FF480AF0E
:100D2000DFF8B804BDF930E0B0F800C0521EACEBFB
:100D3000060C03EB4C03AEEB060E71447FF46CAF74
:100D4000DFF89404006801684A6A9047E5E52DE9F8
:100D5000F84F84B08146884617461C460E9E68466A
:100D60003946082201F09EF802A82146082201F027
:100D700099F8684601F062F9394602A801F073F962
:100D8000BDF80020BDF90A30BDF90410BDF9080016
:100D9000BDF90E5011FB03F1081808EB0007BDF870
:100DA000088009EB4004BDF80210DFF82C0400684D
:100DB000BDF90C909044ADF80880DFF82084CB1882
:100DC000ADF80A3001680A6A9047B8F800C0BDF96A
:100DD0000A10BDF90830FF2E01FB0CFC0CEB0301DF
:100DE00000EB410C00F08280012D78DB3B464F4642
:100DF0002246A946012F64DB38468DF83860197801
:100E0000002956D09DF8386016FB01F14FEA014EDB
:100E10004FEA1E6E1EFA81F1491C0904090E48D0E2
:100E2000BCF80060B2F800E0C1F1FF04E4B24FEAA0
:100E3000162A0AF0F80A14FB0AFA4FEA1E254FEAAE
:100E4000D60B05F0F8050BF0FC0B11FB05A54FEADE
:100E5000DE0A14FB0BFBF6060AF0FC0A360E14FB46
:100E600006F44FEACE6E11FB0ABA4FEA1E6E11FB72
:100E70000E442904090E11FA85F54FEA0A46360E8A
:100E800016FA8AF66D1C761C2D04360421042D0EEC
:100E9000360E090E2D02F60011FA84F105F478459C
:100EA00006F4FC66491C3543090455EAD165ACF8E3
:100EB0000050921C5B1C401E0CF1020C9FD19DF84F
:100EC0003860B8F80000C01B0CEB400CBDF9040002
:100ED000C01BB9F1010902EB400203448AD1BE48AC
:100EE000006801684A6A904700F08EBD012DF6DB6C
:100EF0003A464E4623466746A946012E5DDB3046FC
:100F00001178002954D0B3F800E0FF2908BFA7F8F2
:100F100000E04DD0B7F800C0C1F1FF04E4B24FEAE1
:100F20001E2505F0F8054FEA1C2A0AF0F80A14FB02
:100F30000AFA4FEADC0B0BF0FC0B4FEACC6C14FB0B
:100F40000BFB4FEA1C6C11FB05A54FEADE0A0AF009
:100F5000FC0A4FEACE6E14FB0CF44FEA1E6E11FB36
:100F60000ABA11FB0E442904090E11FA85F54FEA5D
:100F70000A4C4FEA1C6C1CFA8AFC6D1C0CF1010C2B
:100F80002D044FEA0C4C21042D0E4FEA1C6C090E67
:100F90002D024FEACC0C11FA84F105F478450CF4DB
:100FA000FC6C491C4CEA0505090455EAD1653D80F5
:100FB000BF1C9B1C521C401EA2D1B8F80000801B15
:100FC00007EB4007BDF90400801BB9F1010903EBF1
:100FD0004003024491D182E75407010890B600080B
:100FE0002DE9F04F89B00C46129E91469A46002E8C
:100FF00000F0B98007A84946082200F053FF05A871
:101000005146082200F04EFF07A801F017F84946A4
:1010100005A801F028F8BDF91630BDF92010BDF97A
:101020001400BDF81490BDF81C20BDF91870BDF96E
:101030001A5011FB03F1091804EB41049144BDF867
:101040001E10ADF81490DFF89091D9F80000CB187D
:10105000ADF8163001680A6B9047FF2E139900F027
:101060008480400700F18780D9F80000DFF880A471
:1010700001680A6A9047BAF800C0BDF91610BDF9B8
:101080001430FF2E01FB0CFC0CEB030100EB4108BC
:1010900000F08780002DB446CCF1FF015EDD2B46C9
:1010A0002246002F4EDD3846B8F800E032F8026BD9
:1010B0004FEA1E2404F0F80411FB04F4350A05F08D
:1010C000F8054FEADE0B0BF0FC0B1CFB0545F408A2
:1010D00011FB0BFB4FEACE6E04F0FC044FEA1E6ED0
:1010E00011FB0EFEF6061CFB04B4360E1CFB06E6D6
:1010F0004FEA054E4FEA1E6E1EFA85FE25042D0EA0
:1011000015FA84F40EF1010E641C4FEA0E4E24040D
:101110004FEA064B4FEA1E6E240E4FEA1B6B4FEA56
:101120000E2EE4001BFA86F60EF4784E04F4FC64EE
:10113000761C44EA0E0E3604401E4EEAD66E28F89F
:1011400002EBB1D1BAF80000BDF92040C01B08EB9A
:101150004008E41B5B1E02EB4402A2D1D9F8000058
:1011600001684A6A904700F053BC0A007FF47CAFE4
:10117000C0077FF579AFD9F8000004910396BDF858
:101180002010ADB2BFB2029121460195BDF81630D4
:1011900000970468BDF81420D4F838A0D04700F0B8
:1011A00037BC002DDADD28467D0027460446D9F8F5
:1011B00000002B463A464146D0F800C0DCF82C60CF
:1011C000B047641EBAF80000BDF9201008EB4008D3
:1011D00007EB4107EBD1C1E72C2D0020282D002083
:1011E0002DE9F84F0446DFF80868306888B0984663
:1011F0000F46154690F84830022B0BD1DFF8EC076C
:1012000040F2C22200F1A80100F5A27000F038FE01
:10121000AFF30080ADF80C8003A800F0EDFD21686D
:10122000804620464A6A904780450BD0DFF8BC07CD
:101230004FF4317200F1A80100F5FC7000F020FEBF
:10124000AFF3008003A800F05DFD5FEA00080BD15A
:10125000DFF8980740F2C62200F1A80100F51470EB
:1012600000F00EFEAFF3008006A82946082200F029
:1012700019FE01A83946082200F014FE03A800F068
:1012800081FC074603A800F04BFCB5F90010B5F946
:101290000230ADF8140006A8ADF81010DFF8505277
:1012A000ADF81230ADF8167000F0C8FE01A800F0DD
:1012B000C5FE04A800F0C2FEB5F90030DFF834071F
:1012C000BDF90410B0F9002099421CDABDF80410F1
:1012D000BDF80800411808B2002814DDBDF90670F9
:1012E000974210DABDF80A00C0190FFA80F9B9F177
:1012F000000F08DDBDF904C0BCF1000FCCBFE6460D
:101300004FF0000E03E0002101910291ECE0002F6C
:101310000FFA81FCADF804E0D8BF00279C450FFA16
:1013200080FCADF80670B8BF0B469445A3EB0E03E6
:10133000ADF80830B8BF0246D21BB8F1000FADF8C7
:101340000A201FBF18B2002810B2002800F0CC807D
:10135000BDF90400BDF918108842A2BFBDF91A10EA
:10136000BDF906708F4214DBBDF818C0BDF81C0033
:10137000BDF804E084440FFA8CFC73441BB29C4516
:1013800007DBBDF81E00D21912B2411809B2914212
:101390000BDADFF858064FF4357200F1A80100F5BA
:1013A000247000F06DFDAFF3008021682046C14637
:1013B0008A6A9047044630680368996A8847BDF88E
:1013C00004300246BDF81010BDF91400591A09B2D4
:1013D0000129824605DB401A09EB4109ADF81400EA
:1013E00009E0002907D5BDF808705B1AADF8043094
:1013F000C919ADF80810BDF90630BDF81210591A18
:1014000009B2012909DB1AFB01F009EB4009BDF81B
:101410001600411AADF8161009E0002907D55B1A2D
:10142000ADF80630BDF80A30C918ADF80A10BDF99C
:101430001470012FA4BFBDF91610012954DBBDF9AA
:101440000430BDF906004FEA430C04FB00CC02EB6C
:101450000C0BBDF90820BA42B8BF17462A88D31A28
:101460009F42A8BF1F46BDF90A308B42B8BF19463C
:101470000D46DFF880150B88181A8542A8BF05466F
:10148000974208BF92451FD130680268116B8847A8
:10149000C00708D4306804FB05F35A46494605687E
:1014A000EE6AB04720E03068CDF800A0ADF80870D3
:1014B0004B46ADF80A500668DDE9018541462A46EB
:1014C000776DB84700F0A4BA012D0DDB30687B00C2
:1014D0005A464946A34409EB4A09D0F800C0DCF853
:1014E0002CC0E0476D1EF1D1404600F091BA0000DB
:1014F000282D002010B598B1012917D002D3032957
:1015000024D015D3DFF8F044228842B9D722DFF87F
:10151000EC14DFF8EC0400F0B3FCAFF3008067E0FC
:10152000012905D002D3032911D00FD3012010BD0A
:10153000DFF8C444208840B9D722DFF8C014DFF8B0
:10154000C00400F09DFCAFF300804DE049E0DFF8FF
:10155000A844208840B9D722DFF8A014DFF8A004FF
:1015600000F08EFCAFF3008020884004000C00EBFC
:10157000D0714908484210BD10B5C8B1012904D046
:101580002DD3032906D028D329E0DFF86C44228824
:10159000002A17E0DFF86044208840B9D722DFF83E
:1015A0005C14DFF85C0400F06BFCAFF300801FE01C
:1015B000012912D002D3032911D00FD3DFF8384408
:1015C0002088002808D1D722DFF83014DFF8300453
:1015D00000F056FCAFF3008006E002E0B7E7012020
:1015E00010BD4FF0FF3010BD2088C0F30E0010BDBD
:1015F00021884904090C01EBD1725208504210BDF8
:101600002DE9FE4F8AB00F461A991B9BB1F90020B5
:101610008C88A41824B20394B1F80280C988884445
:101620000FFA88F8CDF80880597B080798794CBFE5
:101630004FF4807400240443C906D8794CBF4FF49A
:1016400080784FF00008002C40EA080818BFB8F175
:10165000000F00F0C881189D93F90900BDF958608A
:1016600035B12D1A28B2002803D5761B002500E0DD
:10167000361830B2904202DA5519AD1B1646DFF823
:1016800084039DF884300178BDF95C200BA8012902
:1016900031B20CBF4FF0010A4FF0000A01F056FDC5
:1016A0009DF88430BDF95C20ADF81A0031B20BA86A
:1016B00001F064FDADF8180006A90DF11A0000F064
:1016C00081FC9DF88400DDF87090DDF874B030B9CD
:1016D000BAF1000F08D0380004974DD051E001282E
:1016E000F9D1BAF1000FF6D0C14908680268136B4E
:1016F0009847010608D59DF87C20042A04D15FEAAA
:101700000B00E8D0802107E0C005E4D59DF87C10EF
:101710000829E0D14FF48071BDF86400284380B2FD
:101720000028D8D1039A04FA86F39A42A1BF0298FE
:10173000BDF95CC0C4446045CDDB9DF87C20082A1F
:1017400003D0641C4FF6FE7004400294A84ACDF802
:1017500004801E9B0094106805919DF880100393EF
:10176000BDF81830BDF81A20049104684946D4F831
:101770004080C047FFF7D1B89D48006801680A6AF9
:101780009047DFF874C2BDF91830BCF800E0BDF92D
:101790001A100EFB031300EB4307012305979DF876
:1017A0007C009DF97C2093405B1E0793012808BFB5
:1017B000FF2108D09DF87C00022808BF552102D0E7
:1017C000042802D11121009101E0012200929DF82C
:1017D0007C20002101912746042A05D1BBF101009C
:1017E0008041C043C00F00E0002004F00101084226
:1017F000BDF8641018BF7F1C294389B299B1BDF8A8
:1018000064109DF87C0001FB075110FB01F080B2D1
:1018100000F0070209EBD009BDF864000192A8EBC3
:1018200000081FFA88F89DF88410504636B2BFB2FF
:10183000FFF760FE9DF8841083465046FFF79CFE3C
:101840000146BDF95C00029AABB2121A90459DF8B0
:101850007C00C8BF9046039A961B16FA85F2944204
:10186000C8BF1446E31AFF1A474399F80000019CC9
:10187000B8F1000F20FA04FC40F3AE8003FB1B110B
:10188000444609919DF87C10059ADDF80480089182
:10189000059303970294059B002B40F3888018461C
:1018A0001E99079B009C13EA0C0E69D004FB0EFEE8
:1018B0000D46BEF1FF0F03DB9DF88060FF2E5ED06A
:1018C0009DF880A01EFB0AFE4FEA0E473F0E17FA56
:1018D0008EFE0EF1010E4FEA0E4E4FEA1E6ECEF155
:1018E000FF06F6B201961588DDF804A00E04360E48
:1018F00006F0F8062F0A07F0F8070AFB07F74FEA89
:10190000014A4FEADA4A0AF0FC0ACDF800A0DDF8F5
:1019100004A01EFB0676EF0807F0FC070AFB07FA97
:10192000009F0EFB07AACF00FFB20097EF00019DBA
:10193000FFB27D43009F0EFB075E35042D0E15FAA6
:1019400086F54FEA0A46360E16FA8AF66D1C761CA4
:101950002D0436044FEA0E4A2D0E360E4FEA1A6A4F
:101960002D02F6001AFA8EFE05F4784506F4FC66A0
:101970000EF1010E35434FEA0E4E45EADE65158045
:101980009DF87C50DDF820E0F04402EB4B022CFA8D
:1019900005FC1FFA88F5072DC4BF4FF0000819F8A1
:1019A00001CF401E7FF47FAF1E9107930094039CEC
:1019B00054B1A0441FFA88F009EBD00908F00708D9
:1019C00099F800C02CFA08FC029B099802EB40022F
:1019D0005B1E02937FF45FAF049921B9044800684D
:1019E0000268516A8847FEF798BF000090B6000869
:1019F0002C2D00202A2D0020282D002014F6000870
:101A000018090108222D002005B0BDE8F08F000064
:101A100009B0BDE8F08F000010B5044610460A4634
:101A20000146204601F0C6FB204610BD3CB41446DA
:101A3000DFF8CC52AA683AB9049AA86069802046B7
:101A400002B0194630BC01E033BC7047F8B505461A
:101A5000DFF8AC62B0690C46F0B9ECB1B280B08886
:101A60007188C0EBC007091801EB41037F0007EB49
:101A70004307A7420AD3DFF8E402372200F13C0112
:101A800000F58E7000F0FCF9AFF300803462356130
:101A9000BDE8F14000F001B8F1BD994A1169002993
:101AA00000D17047F0B595885088DFF8C843C5EB82
:101AB000C5074019461C01EB800E7D0001EB800735
:101AC0005761176A04EA46040026A7EB80031680D4
:101AD00001EB800CD680A644AE441B1B5B1BA444C8
:101AE000C2F818E0C2F80CC0D36140B153694FF698
:101AF000FF74401E41F8046B23F8024BF9D100201B
:101B0000002109E0D368401C03F10C040C33655C30
:101B100005F0DF055D540E319488A042F2D3F0BD8C
:101B200038B50546DFF84443A06840B98B4840F219
:101B3000E62200F13C0100F0A3F9AFF30080A068B9
:101B40002988B0B163880A46994205D202EB820126
:101B500008308900405A32BDA5885D19AA4208DACA
:101B6000D21AE068C2EBC20300F108015A00885A99
:101B700032BD4FF6FE74A14202D1BF48008832BD8B
:101B8000002032BD38B50546B84CA06840B973484E
:101B900040F2FA2200F13C0100F072F9AFF300804C
:101BA000A0682988A0B16388994205D201EB810120
:101BB00000EB8100408932BDA5885D19A94207DA92
:101BC000E068CA1AC2EBC20100EB4101488932BD8C
:101BD0004FF6FE72914202D1A848008832BD002023
:101BE00032BD7CB50446A14DA8680E4640B95B489D
:101BF00040F20E3200F13C0100F042F9AFF30080F8
:101C0000A868318858B36B880A46994216D202EB0D
:101C1000820100EB8101B1F90C20ADF80020B1F98F
:101C20000E30ADF802300A8AC2F30C02ADF804207F
:101C3000498AC1F30C01ADF8061022E0A8881818F3
:101C400082420CDAE968D21AC2EBC203204601EBE9
:101C5000430102B00822BDE8704000F023B94FF6FE
:101C6000FE75A9420AD10026834A00968349935FF4
:101C70008D5FADF80430ADF8065002E00021009110
:101C8000019120466946082200F00CF973BD10B49A
:101C9000764A916889B354880088A042034613D2DB
:101CA00003EB830080000A18138A08310C5AC3F32F
:101CB0000C03A3421ED3508A518910BCC0F30C0000
:101CC00088428041C00F704790882018834214DA00
:101CD0001B1BC3EBC3014800D1680A18B2F90430DA
:101CE00001F10804205A8342A2BFB2F906105289BA
:101CF000914202DA012010BC7047002010BC7047EE
:101D0000EC2C002038B5594C0546A16841B9134860
:101D100040F2323200F13C0100F0B2F8AFF3008043
:101D200029884FF6FF70814201D1002032BD4FF665
:101D3000FE72914203D14E480168486C32BD206961
:101D400000281EBF0A4650F82200002804D101EBEB
:101D50008102A0689100405832BD000020E40008D4
:101D600070B400884FF6FE7102468A4241DA3F495C
:101D70004B8898421FD2886802EB820300EB8303F2
:101D80005868B0B3096900291CBF51F82210002916
:101D900030D01A8958891C8A4243588A640B400BF8
:101DA00040EAC40070BC0B2818BF5200D21C920835
:101DB00001EB8200704788881818824219DAD31A1A
:101DC000C3EBC304CB6860001D182E7B06F01F0612
:101DD0000B2E0ED103F108040A33255A185A09694B
:101DE000454351F82220ED1CAD0802EB850070BC84
:101DF0007047002070BC704730B41C4A9168F1B144
:101E000003885588AB420BD203EB830001EB8000C3
:101E1000018A408A490B30BC400B40EAC100704740
:101E2000918869188B420ADAD0685C1BC4EBC40243
:101E300000EB4202107B30BC00F01F0070470088AE
:101E40004FF6FE7188420CD1094A116891F876006C
:101E500000281ABFC86C0028886801684A6A30BC2C
:101E60001047002030BC704700000000EC2C002020
:101E70002C2D0020FCFF0100242D0020262D002009
:101E800000B583B00091019202906A46044918207F
:101E9000ABBE002801D101F0C0F903B000BD00BF06
:101EA0001010020062B38B0708D0521E11F8013BDC
:101EB00000F8013B00F024808B07F6D1830740F047
:101EC000208000BF103A07D330B4B1E83810103A80
:101ED000A0E83810F9D230BC530724BFB1E808108D
:101EE000A0E8081044BF51F8043B40F8043BD20777
:101EF00024BF31F8022B20F8022B44BF0B7803706B
:101F00007047121F17D35B0009D151F8043B20F82A
:101F1000023B1B0C121F20F8023BF6D20BE051F8DB
:101F2000043B00F8013B1B0A20F8023B1B0C121F6C
:101F300000F8013BF3D238BF121D521E24BF11F826
:101F4000013B00F8013BF8D87047F0B40246106836
:101F500095681318506803EB5004C00721D54D4411
:101F60001FE0F0BC02F10C00704713F8017B05F88C
:101F7000017B491EF9D1A0B1B60813F8011B06F088
:101F80000306032E08BF13F8016B01EB062149423B
:101F9000801C294405D011F8016B05F8016B401E27
:101FA000F9D1A342DDD013F8016B16F0030104BF91
:101FB00013F8011BC91C30090F28DAD113F8010BE3
:101FC0000F30D6E7334B344A30B41C78B2F90020D6
:101FD000012C06D10D88B0F900300580501EC31ABF
:101FE0000B8030BC70472B4A1378012B00D0704710
:101FF00070B42A4C0A88B4F90050B0F900306E1E53
:10200000B61A06800B8070BC704722490A78012AF4
:1020100000D0704730B4204C4188B4F90050B0F97A
:102020000630B0F900206D1AED1A0580B0F90410E1
:1020300042808380C18030BC7047000078B5044680
:10204000154E1748B6F90030B0F9005083B00022A1
:102050000021009501A801F0E3F80146204600F0B8
:1020600002F804B070BD0B4A1378012B00D0704702
:1020700030B44588B0F90420048805808988141993
:10208000631E4C1EE31A4380C388C280838030BC29
:1020900070470000222D0020242D00202A2D002032
:1020A000262D002010B5044601F0C4F860680168D0
:1020B000CA689047E06801688A68904723682046AC
:1020C000D96DBDE81040084710B5044621688A6EF6
:1020D000904723682046196E884701F0FFF8226870
:1020E0002046916D8847F8E7F0B583B00446216833
:1020F000D1F894209047002800F0A180012004F13D
:10210000580501F025F9A87B0021A97304F14A06BE
:10211000E8737170687F30B121682046D1F8A8203B
:1021200090470020687731786268DFF85466481E6F
:102130008041C00F50720120307001F056F90268E2
:102140000121136B9847E87B08B90121E97301F07D
:102150004CF9026851698847286803681A699047F2
:10216000287CE97B491EE97300281CBFC9B20029FD
:10217000EDD17078401C707095F90C1040B2884217
:1021800016DB002001AA7070E06802A90368DE680F
:10219000B04738B12368019A02992046D3F8A0606D
:1021A000B04705E02168204601F1A0025368984736
:1021B00000208DF80000606950B102686946D3685C
:1021C000984728B128689DF800100268D36898479E
:1021D00004F11C0001F07EFC287D50B320690168E9
:1021E0000A6990470646A86900B9AE61A869DFF898
:1021F0009415301A88421CD32069DFF88C75026868
:1022000091698847AB69F31AA3FB07729209B0FB87
:10221000F2F00128B8BF642004DB6428ACBF0020C2
:10222000C0F164006873206900210268D36998478F
:10223000AE6101F0DAF802680021136B984721685B
:102240002046D1F898209047012001F089F800201D
:10225000DFF82C15087003B0F0BD000000BF0121AD
:1022600000F84B1F81777047426801215172406826
:1022700001680A691047406801688A68104710B50C
:102280000446DFF8F814087858B994F84820022A70
:1022900007D0606801F0DCFD18B16068407A002862
:1022A000FBD000F0DCFF2046BDE8104001F0E6BDA9
:1022B00000F0DBBF2DE9F04383B00646B0690C4661
:1022C0001746994658B9DFF8C4044FF4987200F1E4
:1022D000380100F5A470FFF7D3FDAFF300800020B4
:1022E0000A990290B06902AADFF8905401924B4615
:1022F0000091D0F800E03A462146DEF80080C04761
:10230000A5F80890E968804691F8760000281ABF81
:10231000C86C0028886801684A6A904728B1401E46
:102320000BD0401E0A2811D91CE02889029B474384
:10233000381940004042191806E02889029A47439C
:102340003819A0EB80001118F1630BE0DFF83C04B2
:1023500040F24D1200F1380100F5C870FFF790FD12
:10236000AFF30080404603B0BDE8F08330B45BB10A
:1023700002F0010001F00104A04208D012F8015B54
:102380005B1E01F8015BF9D1012030BC7047D0071A
:1023900004D512F8014B5B1E01F8014B012B0CD93F
:1023A00002F0030001F00304A04208D09B1E32F8A3
:1023B000025B012B21F8025BF8D8012B0DD912F03A
:1023C00003000AD032F8024B9B1E21F8024B04E0B6
:1023D00052F8040B1B1F41F8040B032BF8D8002BF9
:1023E000D2D012F8010B5B1E01F8010BF9D1CBE73B
:1023F0002DE9F84F8AB096461B9C0026189A199D25
:102400000896022C05D0FF2A06BF002D01250425C1
:1024100004E0FF2A0ABF002D402520250295DDF8A3
:102420005CC0169FDDF854801C9D03911A9ECDF868
:1024300010E0DDF85090ADF818809A468346ADF86C
:102440001A70ADF81CC08DF8242001F017FD03466A
:10245000019500964A465146584600F03BF9B8F1BE
:10246000000F0590ADF81E608DF8254018BF002FB5
:102470008DF8265009D1DFF814034FF4D87200F11B
:102480003801FFF7FDFCAFF30080DBF80010584681
:102490000A6B9047029B03420AD1DFF8F00240F238
:1024A000B11200F138019030FFF7EAFCAFF3008081
:1024B000DBF8040002A9C4E02DE9F04FDFF8BC927C
:1024C0008BB0D9F80C4084469A46179D169E159FEE
:1024D00094F87600DDF85080934600281ABFE06C2F
:1024E0000028A0680991189CCDF828C00368D3F88B
:1024F00024C0E047089009990790B9F808000594AE
:102500005B4606900A980495002203960297CDF840
:102510000480CDF800A0FFF76BFF95E02DE9F843AC
:1025200088B006469146109C119D129A1498BDF9E8
:1025300054C00027984606978DF81C003046CDF809
:1025400000C00191ADF81040ADF81250ADF8142064
:1025500001F094FC034642464946304600F0E5F857
:102560000390DFF818020289C168ADF8162091F8CF
:10257000760000281ABFC86C002888680268536A71
:102580009847002C8DF81E008DF81D0018BF002DF7
:1025900009D1DFF8F80140F2CD1200F13801FFF760
:1025A0006FFCAFF30080316830460A6B9047009BA8
:1025B00003420AD1DFF8D4014FF4E77200F1380189
:1025C0009030FFF75DFCAFF30080139869460690EA
:1025D000706802685368984709B0BDE8F0832DE938
:1025E000F84FDFF898818AB0D8F80C4084469246BC
:1025F0009946169D159E94F87600149F8B460028E8
:102600001ABFE06C0028A068CDF824C00268179CAF
:10261000536A98470890B8F8080001214FF0020C5F
:102620000690099805915346CDF81CC000220494E9
:102630005946039502960197CDF80090FFF7D8FE12
:1026400002E00268536898470BB0BDE8F08F8165DF
:102650001C3001F03DBAF7B51D460022012388B0B9
:102660000446069200932768109EBA6A9047BDF808
:1026700026200346BDF82410204600F056F8BDF889
:102680002A10BDF828200190ADF812103B49ADF892
:1026900010200A89C9680395ADF81420ADF81660BA
:1026A00091F8760000281ABFC86C00288868026874
:1026B000536A9847FF228DF81D008DF81E00694669
:1026C0008DF81C20606802685368984728460BB054
:1026D000F0BD0000F8B5079800270C4615461E46C9
:1026E0000C281BD8DFE800F015171909090909079C
:1026F000070707070900082710E024484FF40C7269
:1027000000F1380100F5F470FFF7BAFBAFF3008079
:1027100004E0102702E0182700E020270698FF10A9
:1027200005FB00447C433019F2BD2DE9FC410D4608
:10273000124FF96804461646984691F8760000282C
:102740001ABFC86C0028886801684A6A90470190DF
:10275000388943463246009029462046FFF7BAFFA3
:10276000BDE8F681054A117829B190F86A00401E4B
:102770008041C00F7047012070470000202D0020CD
:10278000522D002001E1F5053E0AD7A3A0E800087C
:1027900010B50446606801688A68904704F16901D1
:1027A000087808B101224A7010BD38B5044604F11A
:1027B0006905687870B1022000F0DAFD002120463A
:1027C0006970297001F05AFB236801462046D3F84E
:1027D0009C40A04731BD10B584B00446029102A8C8
:1027E000039201F08DFB0398029AADF8040001A951
:1027F000ADF806200DF10600FFF7F5FB94F86B002D
:10280000A8B1BDF80410BDF8063004F11C00009119
:10281000226EE16D92B289B201F069F9C8B1BDF9D9
:102820000600E065BDF90410216604B010BDBDF8D6
:102830000430BDF80620002104F11C0001F0A4F9C9
:10284000012084F86B00BDF90610E165BDF90400B4
:10285000206604B010BD10B5044694F86B0058B162
:10286000236EE26D012104F11C009BB292B201F0D3
:102870008BF9002384F86B3010BD10B5044631B1DC
:10288000032000F065FD206960B1012105E003200F
:1028900000F066FD206928B1002102685369BDE897
:1028A0001040184710BD09061206090C520D01F41C
:1028B000784102F4FC6211431B0641EAD360704781
:1028C0002DE9F84F00260025002A29DD4FF4807AF3
:1028D00083460F46984614464FF0000E6B46CDF8DF
:1028E00000E03A4641465846A94601F0E5FB054658
:1028F000B0B10A2814D0009880B1417B8588807AD5
:102900003B680A06009A4CBF51460021D3F83CC0F0
:102910000143761849463846E0473618641EDBD135
:10292000B0B2BDE8F28FF8B501240F008AB00546B9
:10293000164614D0BDF94000019100933346294654
:1029400082B202A801F002FF002102A800F0FEFA04
:10295000BDF80800002818BF641CF5D10BE0314613
:1029600001F068FB0A283146284608BF641C01F0C4
:1029700061FB0028F6D1A0B20BB0F0BD37B51A4606
:1029800009494B6882B000EB63000AACDB07089B87
:1029900051BF0D68056809686D5809990194009147
:1029A00003A9A84705B030BD682300202DE9F14FE9
:1029B000D6B0DDF88091B9F1000F1EBF1E46306819
:1029C00000281CBF96F80E80B8F1000F00F04A8175
:1029D0000A91114607A80822FFF764FAB1790A9F05
:1029E0000A984FF000080129B7F90470B0F906A061
:1029F0002AD03BD3032901D014D337E0BDF922B04C
:102A0000BDF81E20BDF92030BDF91C00ADF820B086
:102A1000ADF81E00AAEB0B01891AADF81C10ADF839
:102A2000223023E0BDF82200BDF82030BDF81E2082
:102A3000BDF81C10AAEB0000FB1A821A5B1AADF855
:102A40001E20ADF81C3011E0BDF92020BDF9223068
:102A5000BDF81C00ADF82030ADF82220B91A081AD4
:102A6000BDF91E10ADF81E00ADF81C10B17901299A
:102A700018BF032902D13846574682463FA801F0C5
:102A80008DFA306801684A6C9047619A034649465E
:102A90003FA801F0B2FB29A801F080FA307960B1BB
:102AA00030684FF0010B01684A6C9047619A034609
:102AB000494629A801F0A1FB00E0C346306801683F
:102AC0000A6B9047B6F90C104518002D03DDBDF9CF
:102AD0001E20824201DA002402E0891891FBF5F4FD
:102AE00013A801F05BFA307C48B1306801684A6C89
:102AF0009047619A0346494613A801F07EFB307C5B
:102B0000BAB2019031680091737913A90BA801F052
:102B10001DFE307C002800F0A680002CD8BF0024C9
:102B20002ADDA9460FFA8AF0B0EB490F0BA8B4BF13
:102B30000121002100F00AFABDF83E500BE0717946
:102B40003FA86D1E01F076FABBF1000F03D071793A
:102B500029A801F06FFAA8B20028F0D1BDF82C0026
:102B6000641EC844AAEB090A00287BD0002CD9D1E6
:102B70004D46307C002408B30FFA8AF0B0EB450FC5
:102B8000B4BF0121002116E00A2D05D1641EC844FE
:102B9000AAEB090A002CEBDD71793FA801F04AFA93
:102BA000BBF1000F054603D0717929A801F042FA64
:102BB000002DE9D159E00BA800F0C8F9BBF1000FD6
:102BC0001BD0307C10B1BDF9460006E0316800230F
:102BD00047F6FF7229A8FFF773FE3179012905D165
:102BE00000B2381A00EBD070401007E0022906D17D
:102BF000F17B00B2381A401A00E0F07B0446ADF8D1
:102C00002440307C9DF84A1007AB0DF1240C0028BD
:102C100014BFBDF83E0047F6FF7005903FA80022A4
:102C2000049003920A9A5698069101930FFA88F33A
:102C300002960021CDF800C000F01AF890B9307C5F
:102C4000A844AAEB050A18B10FFA8AF0A84209DBDA
:102C5000BDF81E10BDF82200411809B20FFA88F025
:102C6000814286DA01E0A94694E757B0BDE8F08FCB
:102C70002DE9F04F8A469B4699B09146249DDDF898
:102C80008CE0BEF80030229F279ADDF8A0C0BEF885
:102C900004100024CB182968BCF1000F1BB291F876
:102CA0000980CDF844800E7AA04611461096B7F9F7
:102CB000007009D095F810C0BCF1040F0CBF4FF0A4
:102CC000020C4FF0010C61440029009440F33A815A
:102CD000D4464E460F90DDF894A0ADF832B0DDF842
:102CE0009890CDF858C01596CDF89890DDF80090E2
:102CF000CDF88CE0279213931491279A00210D911F
:102D0000264691450FDB286801684B6998470446C1
:102D100028680CAB12AA2146D0F800E0DEF808C003
:102D2000E0470D900AE00CA812A9019026980091A6
:102D30002A680DAB514601F0F3F904464FF6FF60E7
:102D400084421CBF42F20B018C4200F0F480002C44
:102D500000F0F8800A2C6CD00D9868B184885FEA86
:102D60000A000D98417B08BF47440A064CBF4FF448
:102D700080784FF0000812E0286801680A699047DF
:102D80004FF6FF6398421CBF42F20B01884200F0ED
:102D9000D2800D980028E2D14FF00008CBE0817A74
:102DA000BAF1010F41EA080808BFA7EB080706B30C
:102DB0005FEA0A0028680D9A31460368D3F83CC0E0
:102DC00002D1E0473F1817E0E0473F1ABAF1010F80
:102DD00007D123991198B1F9002040443818904246
:102DE0000FDB0D98417B0A074CBF4FF48070002029
:102DF00021E05FEA0A00E9D110991398791A884214
:102E0000EFDA002C269F279D00F09C800A2C10D022
:102E100009F10109A9450CDAA5EB09055146384627
:102E200001F008F9002800F08D800A2801D06D1EFD
:102E3000F4D1002087E00D99DDF834E0DDF88CC096
:102E400091F909209EF80660BCF90010BB183043C8
:102E5000181888426FDBDDF84CC063456BDA00263A
:102E60008F4228684FF0000BB8BFCE1B0168CA6ABA
:102E700090470D99BDF832E04B7B097A5A064CBF5A
:102E80004FF47E4200229B0670444CBF4FF4807387
:102E900000231A430A43801A00B2239AADF838007F
:102EA000B2F90210884213DA0D9B93F80DC0DB795A
:102EB0005FEACC6E4CBF4FF4807CDC4643EA0C0CDE
:102EC00000EB0C038B4236DBADF83810A1EB000BA6
:102ED00028681FFA8BFB01688A6B904715998DF85B
:102EE000310017A80822FEF7DDFFA8799DF83020F1
:102EF000BDF938C00B90A97B0992129A0A91A86873
:102F00009DF8311008900D9806920791239904912D
:102F1000B1B2F6190590CDF80CB036B20291CDF8E9
:102F200004C000960F981699DDE91723D0F800E049
:102F3000DEF84460B047149809F101098145FFF6B5
:102F4000DCAE5EE7012019B0BDE8F08F00232DE96B
:102F5000F04F002485B000260D00B646427A0BD013
:102F6000032A01D1012312E0042A18BF012AF9D053
:102F7000022A0CD101240AE0032A01D1012606E02D
:102F8000042AFBD0012A14BF022A4FF0010E0022AE
:102F9000904642824FF48079828242F20B0A8DF889
:102FA000001005460496CDF80CE0029309E0B5F850
:102FB00016C0D3186B83AB82604468820020E8821D
:102FC00028834FF0000E01ABCDF804E0297AEA68BF
:102FD00068682E8801F070F8002828801FBFE98AF1
:102FE000491CE9820A280CD1298B6A8AE88AAB8AB3
:102FF000821800206A82E882C91828836983A9821E
:10300000A1E0019911B95045DBD115E000215045EF
:1030100012D00198818829800198427B807A11061C
:10302000019A31464CBF4F4600270743E8680368C2
:10303000D3F83CC0E0473918B5F800B0BBF1200F19
:1030400018BFD34504D1202E1CBF5645B5F81880B3
:10305000288BAB8AB5F810E00A1891B22A8301EBED
:10306000030C9DF80010E645B4BF01270027D1B13D
:10307000029828B95CB1BBF1200F18BFD34506D127
:10308000A98B688A61448E4591DA00288FD0002F81
:103090001CBF688A002894D06A8B0121A88BA9776D
:1030A00082186A834FE037B3049971B1B5F816906E
:1030B0006C8AC3186B83A9F101010C196C82AB8275
:1030C0000123121AEB822A833DE0039900293FF481
:1030D00078AFBBF1200F18BFD34503D0202E18BF07
:1030E000564524D0BBF1200F1EBFD345688A002867
:1030F0003FF467AF27E0BBF1200F18BFD3453FF483
:1031000060AF202E18BF56457FF45BAFB5F816C0F0
:10311000698A08EB0306C318121AACF1010E714458
:10312000698201216E83AB82E9822A8349E7B5F87F
:1031300016906C8A9844C318A5F81A80A9F1010169
:103140000C196C82BBE705B0BDE8F08F012B07D0EE
:1031500002D3032B0ED00AD3B0F900000818704731
:1031600003888188CB181BB29A1A501E70470288B8
:1031700080881AE0B0F9001050187047012B07D072
:1031800002D3032B0FD007D3B0F9020010187047F9
:10319000B0F90220881870474188C088411809B2E8
:1031A0008A1A501E70474288C088821812B2511A7B
:1031B000481E704762F30F2262F31F42401810F05E
:1031C000030308D0C91A1FD3DB0748BF00F8012D3D
:1031D00028BF20F8022D130030B4144615461039CC
:1031E00028BF20E93C00FAD8490728BF20E90C0095
:1031F00048BF40F8042D890028BF20F8022D48BFA1
:1032000000F8012D30BC7047C91818BF00F8012D17
:10321000CB0728BF00F8012D7047012001F0D4BA78
:1032200081B0BDF904C0018042808380A0F806C04F
:1032300001B0704710B50322002101203A4C01F083
:1032400012FB206020B100230022002101F041FB8D
:1032500000220121012001F006FB606010BD324810
:10326000002300684FF0FF320AE02F480023006877
:103270000022002101F02DBB2B4800230068002212
:10328000002101F07BBC80B50020274A0090106827
:10329000694601F02EFC009838B14FF08051234A66
:1032A0001160BFF34F8FBFF36F8F01BD1E49486898
:1032B000002800D170471CB50024002300946A4602
:1032C000083101F0B2FB009838B14FF08051174A35
:1032D0001160BFF34F8FBFF36F8F13BD10B5124C4A
:1032E00000236068002204F1080101F047FC04F1AA
:1032F0000801606800234FF0FF32BDE8104001F084
:103300003DBC80B50A4A0028126814BF0121002183
:103310001046FFF7B2FA012002BDFEE7FEE70549BD
:10332000002001F04FBF00007C22002004ED00E0EF
:103330002C2D00200333000880B5002002F068F92E
:1033400000210E4A11700020BDE8024002F088B949
:10335000012804D109490870002002F07DB97047A6
:10336000012804D100200549087002F079B970479E
:10337000012804BF002002F07CB970477B2D00209B
:1033800000BF38B50446DFF814172160DFF81027B6
:1033900022600023A4F8843004F1A80002F082FA2D
:1033A00004F1EA00DFF8FC5602F07CFA04F59670AE
:1033B000002101704170DFF8F016DFF8F00602F02E
:1033C0007FFA10B10020288106E04FF480610220CE
:1033D0002981286102F0F9FA00212046E96029617B
:1033E000696100F080F9204632BDDFF8B806C06898
:1033F0007047DFF8B006006910B10268936918479A
:10340000704770473EB50022DFF8A4460092DFF80F
:10341000A436A25EB3F90050ADF804206946ADF8B9
:1034200006500268D36A984703B030BDF8B5054628
:103430000C46DFF88006DFF8781684B0B0F900009B
:10344000B1F90010002200920822ADF804102146C4
:10345000ADF8060002A8FEF725FD694602A802F0B5
:1034600093FD204602A90822DFF83866FEF71AFD10
:10347000306908B395F82C1169B1684621460822D5
:10348000FEF710FDDDE9002311461A46284600F03C
:1034900015F805B0F0BD05682146AF68B847B069BA
:1034A00018B10268214693689847DFF80C06214658
:1034B000006802685369984705B0F0BD2DE9F641F0
:1034C00086B00546BDF91C1000291CBFBDF91E00C1
:1034D000002875D0B5F8E840002C69D0641E54D49B
:1034E00005F1A8080B27A6B2684608EBC60108221A
:1034F000FEF7D8FC06A9684602F08EFD00285FD1D1
:10350000694606A802F088FD28B1A2B2414602A889
:1035100002F0A4FD37E006A9684602F0C8FD48B1F4
:10352000A2B2414602A802F099FD694606A802F03F
:10353000E0FD28E0DDE90601CDE90201694602A8C7
:1035400002F0D7FDBDF90430BDF906C0BDF90C008D
:10355000BDF90E1013FB0CFC10FB01F1BDF91C00B2
:1035600001EB8102BDF91E1010FB01C0784352002F
:10357000824208DAA2B2414604A802F06FFDDDE9FA
:103580000201CDE90601641EADD5B5F8E8000828B2
:103590000ED1072205F1A80102A802F05FFD6846DE
:1035A00002A90822FEF77EFC694606A802F0A1FDEA
:1035B000DDE906010A46014605F1A80002F0E4FD36
:1035C00008B0BDE8F081DFF8DC04006910B10268E2
:1035D000D36918477047DFF8CC04006910B102685E
:1035E000136A184770472DE9F0410446DFF8B454D8
:1035F0006869C0B1017A39B9002284F82D210368C5
:103600009968BDE8F041084794F82D0158B9286938
:1036100010B101680A69904768690168CA689047F3
:10362000012084F82D0104F18808002746460BE0AC
:10363000307838B1211DBAB251F822000368D3F8AE
:1036400050C0E0477F1C761CB4F884108F42EFDB3B
:10365000491E3DD408EB01021078A8BB231D8FB290
:1036600053F827000023271D12E0BEF11F0F09DACF
:10367000DCF804600EF1010E4CF8046BB4F88460C1
:10368000B645F2DBA6F1010CA4F884C05B1C3F1D1B
:10369000B4F884C0634524DAD7F800E08645F5D154
:1036A0009E46261D06EB8E0CE8E783B22344883342
:1036B000401C5F781F70B4F884301FFA80FC9C4572
:1036C000F3D3002008F80300491E521E0029C3D579
:1036D000286920B101684A6ABDE8F0411047BDE899
:1036E000F0810846E7E70021A0F884102021883007
:1036F00002F070BD2DE9F84F804698B008F595743A
:10370000A17019B10020A8F8E800BCE1B8F8E810F1
:10371000DFF89053A8694A1E9241D243D20F002885
:103720001CBFB5F90410002910D0B5F9060068B126
:103730002846FEF76AFCD5E9002311461A464046A2
:10374000FFF7BCFE00202860686002E0002A00F05D
:103750008E8108230822DFF8641307A802F03DFDDC
:1037600000202F89ADF85C00DFF85463DFF854B314
:1037700024E008F1A801BAB201EBC20168460822B0
:10378000FEF790FBBDF85C00082807DB4FF40272DF
:1037900059463046FEF774FBAFF30080BDF85C007D
:1037A0000146082909DA401C0822ADF85C0007A888
:1037B00000EBC1006946FEF775FB7F1CB8F8E81006
:1037C000B8B28842D5D32E8910E008F1EA01B2B22E
:1037D00001EBC20168460822761CFEF763FBDDE9B7
:1037E00000010A4601464046FFF768FE2288B0B253
:1037F0009042EAD3B04E306890F8481028890129E9
:1038000040F082804FF000090CE008F1A80182B27C
:1038100001EBC2014A88CB889A1812B29145B8BF11
:103820009146401CB8F8E8108842EEDBA148A04B56
:10383000B0F800A04FEADA0ABAF1020FB8BF4FF0B1
:10384000010A002100910191069308E0904201DAFB
:10385000002A20DC306801210268D36F9847BDF848
:103860000200BDF80610081800B24845306802682A
:1038700080F2FE80D2F880309847BDF80210BDF883
:10388000062051180AB20AEB02039842B8BF484515
:10389000DCDB904201DA4A4603E04A468145C8BF74
:1038A0000246069B0027ADF80070ADF80210511AD1
:1038B000DF5FADF80610ADF804702F89B8F8E81096
:1038C000B8B28842CBD208F1A802BBB202EBC30166
:1038D00004A80822FEF7E6FA694604A802F054FBA1
:1038E000DDE90401CDE90201BDF90C20002A1CBF6D
:1038F000BDF90E00002805D0D8F8002002A94046E6
:10390000D36A98477F1CD9E702296AD16E4F814656
:1039100003E001A94FE009F10109B8F8E8101FFA26
:1039200089F0884280F0A68008F1A8021FFA89F386
:1039300002EBC30103A80822FEF7B4FA3878012885
:1039400004BF03A8FEF77AFBBDF9100000281CBFD6
:10395000BDF912100029DED0002201920292BDF9B9
:103960000C30BDF80E20ADF80800ADF80430ADF80D
:103970000620BDF80E20BDF81230BDF906103068E3
:103980009A18BDF80830521A92B200928AB2D0F852
:1039900000E0BDF80410DEF878A0D0473A78ADF822
:1039A0000A00012AB5D1DDE90101CDE9050105A82B
:1039B000FEF72BFB05A9D8F800204046D36A9847AC
:1039C000BDF80600BDF80A10BDF80E200818BDF8B5
:1039D0001210ADF8060000B28A1812B29042C8DB8D
:1039E00099E70646B8F8E820B0B2904242D208F112
:1039F000A803B7B203EBC70168460822FEF752FAE4
:103A0000BDF9041000291CBFBDF90600002805D02F
:103A1000D8F8002069464046D36A9847761CE1E70B
:103A200007A9B2B201EBC20168460822FEF73AFAD2
:103A30002088082807DB4FF4027259462846FEF713
:103A40001FFAAFF3008020880146082909DA401CDC
:103A50000822208008F1EA0000EBC1006946FEF769
:103A600021FA761CBDF85C10B0B28842D8D30AE0C7
:103A7000D3699847154908780028F8D00022228099
:103A80002E890F4DEEE719B0BDE8F08F05480069AB
:103A900010B10268936A1847704700007C0F010854
:103AA0001C0B010870230020CDB5E8B5C2A507F4B2
:103AB000242D0020262D00202C2D0020A1170108E8
:103AC0004C0E0108ACFC0008222D0020202D002007
:103AD00001617047817B49B10189491C018189B22B
:103AE000082903DB002141818181817370472DE921
:103AF000F0410E4684B00546174698460A9CB5F933
:103B00000620B5F90430ADF80A80BDF80A10ADF80A
:103B10000630BDF80600DFF818C14FF0000ECDF8F2
:103B200000C08DF804E0081A01B20029ADF80820A1
:103B3000ADF80C4044BF08464042A98A00B2814219
:103B40000ADBBDF80800201A02B2002A44BF104662
:103B5000404200B2814213DA28696946A8EB0606A2
:103B6000E71B0268536898474FF0000C0120A5F846
:103B700008C06E81AF81A5F80480EC80A87300E0D6
:103B8000002004B0BDE8F0812DE9F8410D46012D7B
:103B900083B004461646984618BF022D32D1B4F9B8
:103BA0000A20D01C072813D3B4F90630B4F904E076
:103BB00020480027009069468DF80470ADF8062073
:103BC000ADF808E0ADF80A302069026893689847BC
:103BD000B4F90C20D01C072819D3B4F90630B4F975
:103BE00004E014490127009169468DF80470ADF88E
:103BF0000620ADF808E0ADF80A3020690268936845
:103C0000984704E0280004BFA680A4F806800A4A6A
:103C10008DF8045000920022ADF806606946ADF8B8
:103C20000880ADF80A202069026813689847A8E761
:103C3000A4160108B81601089016010800BF724BBF
:103C40000360416000218260C16001617047C1680A
:103C50000069814201D1012070470020704702694C
:103C6000C168511A0129BCBF80684118012901DCD3
:103C7000012070470020704738B50446E368226988
:103C8000D21A012ABCBFA0688218012A0DD9656822
:103C90001F2205EB431002F0B9FAE068A168401C4E
:103CA000884228BF401AE06031BD5848392200F1EF
:103CB0002401A3E010B5044621680A68904740B18A
:103CC00052483F2200F124017C30FEF7D9F8AFF3CF
:103CD00000802069A168401C884228BF401A2061EA
:103CE00010BD4168006901EB4010704710B50446F3
:103CF000606801680A68904748B9617A39B1207AEA
:103D000028B9216820464A6ABDE81040104710BD16
:103D100001680A69104770B504460D46606801687D
:103D20004A6890470028F9D1394E306801684A6ED8
:103D30009047FFF7A1FA60682946026893689847A0
:103D400021682046CA6A904730680368196EBDE84A
:103D50007040084780B5FFF782FABDE80140FFF7E1
:103D600084BA38B5044601216068217202689169FD
:103D7000884705462B68012B31D0022B25D0042B18
:103D80000BD0082B15D0202B18BF402B27D0802B11
:103D900018BFB3F5807F22D02BE02268297F204610
:103DA000936B9847204624682946226BBDE838402B
:103DB00010472368297F20469A6B90472046246845
:103DC0002946636BBDE83440184721682046CA6B1A
:103DD00090472368204629465C6BA04731BD216887
:103DE0002046CA6B90472368204629461C6BA04793
:103DF00031BD06488B2200F12401AC30FEF740F8BB
:103E0000AFF3008031BD0000CC0F0108F8EE0008D0
:103E10002C2D002010B50446606801680A689047A0
:103E200038B9207A28B1606801684A699047002053
:103E30002072606801680A68904728B923682046A4
:103E4000596ABDE810400847BDE81040FFF71BBAAB
:103E500080B5406801680A689047FFE7401E8041CE
:103E6000C043C00F02BD704770474FF0FF318181E2
:103E7000018441841168C1611060704710B5044627
:103E80000649087840B122682046916A8847E36B6A
:103E9000984201D1206C10BDE06B10BD202D002098
:103EA000F0B5044601271046002C059A069D079E92
:103EB0004FF0010E44BF64424FF0FF37002A44BF69
:103EC00052427F42002D42FA01FC0EFA01F144BF3A
:103ED0006D427F42491E1140614334680CFB03432D
:103EE00091FBF5F20CFB0020C91805FB12113160A3
:103EF00091FBF5F3181805FB131131607843F0BD01
:103F0000F8B5254D84B00446A8692668676800287E
:103F10003ED0A96800EBD07203AE019001EB6201C4
:103F20000296039120680090EB6BEA6AE9692868C1
:103F3000FFF7B6FF03AAA9690646029201916068DD
:103F400000902B6C2A6B296A6868FFF7A9FF861915
:103F5000A869696903AB00EBD072029301EB6201BF
:103F600001900391206800906B6C6A6B696AE86845
:103F7000FFF796FF074603A8A969029001916268BE
:103F80000092AB6CAA6BA96A2869FFF789FFC71971
:103F90002660676005B0F0BD342B002038B50446BC
:103FA0000020206000210022E08200232086E063C0
:103FB00004F14E0061600125E26023742183E285F3
:103FC000E18622870180428083808571C17120460D
:103FD00000F017F9204632BD70B50446208E40B976
:103FE000DE22DFF86015DFF86005FDF749FFAFF36B
:103FF0000080DFF8C035E08D04EB4001401CA0FBE1
:1040000003324D8BD20802EB8206A0EB4600E0851E
:10401000208E411E2046218600F06FFA208B294613
:10402000022804BF421E228304F1120002F0F4F8B9
:10403000284670BD38B50446DFF87C552A686868A4
:1040400012B9C3070FD570B104EB6003C00702D5E6
:104050001A682D685259184690470246002104F10B
:104060001A0002F007F9E06B10B3002104F11A0006
:1040700002F022F9E0B1204640F63F1500F066FA62
:10408000012104F11A0002F017F9A84210D1002111
:1040900004F11A0002F010F90246012104F11A009D
:1040A00002F0E8F82A46002104F11A0002F0E2F8D2
:1040B0002046BDE832408FE7F8B5044617461E4655
:1040C000FFF7B8FF3A68054629463846D36898474F
:1040D000A5F560618029306005D202463946204648
:1040E00000F0D2F80AE094F8551041B140F60212FF
:1040F000954204D10146204600F0A3F830603068B4
:1041000050B1417B807A0A064CBF4FF48071002188
:104110000143481E8041C00F84F855002846F2BD77
:104120002DE9F843044691461E46089D099FFFF776
:1041300081FFD9F800C02A4680463B4641464846A2
:10414000DCF80850A847A8F560618029306005D2E6
:1041500002464946204600F097F80AE094F85510C8
:1041600041B140F60212904504D10146204600F0CC
:1041700068F83060306850B1417B807A0A064CBFE5
:104180004FF4807100210143481E8041C00F84F824
:1041900055004046BDE8F28314E0002101744268F6
:1041A000118841B3022921D1911C8268416082604B
:1041B00052F8041B8260C16000291FBF09880029D2
:1041C00001220274416811B90168A1B14160017C0A
:1041D0000029E4D0C16800291CBF09880029DCD06F
:1041E000C268921CC26032F8020D7047911C416097
:1041F00031F8020D70470020704782600160C36390
:10420000FFE710B5044600206060E060207420865F
:1042100020832087204600F070F9DFF8BC3419684D
:10422000586811B9C2070BD550B104EB6002C00742
:1042300002D511681B68C9581046BDE810400847F0
:1042400010BD70B5044691B104F140000E22FDF797
:1042500029FE04F14601CD7908782E074CBF4FF4B2
:104260008072002202435242CA7004F140010846A3
:1042700070BD104610B502680C461946D3689847C1
:1042800000B10446204610BD2DE9F84F5FEA020850
:1042900081468B4609F14E0605D10020B280308060
:1042A0007080BDE8F28FB8F804A009F140004146E3
:1042B0000E22FDF7F7FD09F1470740F63162B879A4
:1042C000C40638784CBF4FF4807400240443E510D2
:1042D000BAEB020108D0C91E032905D9091F02291A
:1042E00023D90F3907292BD8002109F11A0040F6EC
:1042F000336801F0E1FF404508D1DBF8002041467A
:104300005846D368984701F0F7FF308030882C1961
:10431000241809F140003480B6F9001001F0FDFFC7
:10432000B978B088091AB9706CE0718809F1400059
:10433000491B09B201F0F1FF7088041B641B60E0A7
:1043400040F61B618A451FBF40F61D62924540F64C
:104350001F6082451DD1AAF101039BB25A46414616
:104360004846FFF786FF01F0C7FF3080B879FA783A
:1043700001064CBF4FF480710021114300064CBF71
:104380004FF4807000200243520902EB9102B28088
:1043900032E009F1400001F0AFFF308040F60960E3
:1043A00082451FBF40F613618A4540F61962924567
:1043B00020D1B8795A460106F87840F613614CBF0F
:1043C0004FF48075002505438A45414648460CBF99
:1043D00040F60C63AAF101039BB2FFF74AFF417B51
:1043E000807A0A064CBF4FF48071002101436D1A98
:1043F000B58001E00021B18009F1400001F07CFFAF
:10440000041B748009F14000BDE8F28F2DE9F84FDC
:104410000D461646B54207469B4628D2741BA4B2E9
:10442000012C24DBDFF8C082DFF8C0923B8E33B969
:10443000E62249464046FDF723FDAFF30080388E63
:104440005C4B07F11A0E401E3886F98D80B2401879
:10445000A0FB0332D20802EB820CA0EB4C003EF82A
:10446000101007F1320001F0D7FE641EDED129469C
:1044700007F11A0001F068FF30003BD09C4C9D4DC5
:10448000DFF87482DFF87492398E761EB0B23BF892
:1044900010A0491C0A2906D9EC2249464046FDF7DE
:1044A000EFFCAFF30080F88D424A0930A0FB0221F7
:1044B000C90801EB8103A0EB4300F885388E401C4E
:1044C000388680B230B9FD2229462046FDF7D8FC57
:1044D000AFF30080F88D4CF6CD4207F11A0C424341
:1044E000D20C02EB8203A0EB43002CF810A0B0B278
:1044F0000028C9D13846BDE8F24F10B504460EE099
:10450000E08E04EB4002401C00F00100518EE0867A
:10451000228F04F11A00531E238701F037FF228EE9
:104520000A2A0ED0208F0028EAD1218E0A2908D02D
:104530002046FFF731FE014604F11A0001F026FF84
:10454000F3E710BDA8F60008581701082DE9F04759
:1045500007460A24FD6BDFF88C81DFF884916E88B2
:104560003B8E641E33B9D32249464046FDF788FC92
:10457000AFF30080F88D4CF6CD4271084243D20C67
:1045800002EB82032A46A0EB430007EB4000B0F8A1
:104590001AA03846534600F0B7F848B105EB400181
:1045A0005246384600F00AF8002818BF002CD7D130
:1045B000BDE8F087CDCCCCCC442D00202DE9FC4BC0
:1045C0008046914618E02009270A00F00F0007F006
:1045D0000F07834600903B4632462946404604F08A
:1045E0000F0400F020F890B905EB460505EB4700F5
:1045F00000EB4B0101EB44010D4635F8024B260B55
:1046000035F816004845DED00020BDE8F68BBE190F
:104610005E4405EB4603404639462246FFF7F6FE68
:104620000120BDE8F68B2DE9F84F04460027100065
:1046300089469A4621D0DFF8C8B01646B4F818E08B
:10464000F31B5D1E1FFA85FC39F8028BF44506D377
:10465000D32259462B48FDF713FCAFF30080E08AC4
:10466000ADB2281800F0010004EB40014A8A9045E1
:104670002CD17F1CB8B2B042E0D30A980027DFF8F3
:1046800064B0DFF85C808244BEB2564521DA218EE8
:10469000B8B239F8025B884206D3D3224146584665
:1046A000FDF7EEFBAFF30080E08D0C4A3018A0FB65
:1046B0000221C90801EB8103A0EB430004EB400C8D
:1046C000BCF81AE0754508BF7F1CDDD00020BDE8AE
:1046D000F28F0120BDE8F28F3C2D0020CDCCCCCC58
:1046E000D8F800080817010870170108F0F9000849
:1046F000F81601084CF80008741601087CFA000846
:1047000094FB000818170108F0B415880020AB428C
:1047100022BF02EB810636F8047C9F4204D20020BF
:10472000F0BC7047601C80B28842F8DA0C1804EBC9
:10473000D474641032F824509D42F3DB18BFA1B248
:10474000F2D102EB84004088F0BC704770B504469B
:10475000049D0598002626806072E560E06861602F
:10476000237222826682A682E68226836683A683DD
:10477000A67701684A699047050023D0E06829467A
:104780000268D36898470646707B0106B07A4CBF32
:104790004FF4807100210143A183617A042911D172
:1047A000E068294632460368DD6BA847717BA38B1E
:1047B0000A06B17A4CBF4FF4807200220A431018E7
:1047C000C318A383204670BD80B5AFF30080024AB2
:1047D00011001820ABBEFBE72600020038B504002C
:1047E0000D460AD172B64FF4A07080F31188BFF362
:1047F0004F8FBFF36F8F62B6FEE701F04EFEE26BA4
:10480000206C21684243881860600020A063206803
:10481000E26BA060206C2168521E42438818E06061
:104820004FF0FF306064A0648DB92069B8B104F125
:10483000100000F060FD012811D14FF08051DFF829
:1048400090050160BFF34F8FBFF36F8F07E004F156
:10485000100001F0B5FE04F1240001F0B1FE01F0FA
:104860003AFE012032BDF8B506000D4617460AD1C2
:1048700072B64FF4A07080F31188BFF34F8FBFF36F
:104880006F8F62B6FEE7002D0EBF542005FB06F0C9
:10489000553001F0DFFE04000ED0002D0EBF246065
:1048A00004F154002060E663012125642046FFF7EF
:1048B00095FF84F8507054B972B64FF4A07080F32D
:1048C0001188BFF34F8FBFF36F8F62B6FEE72046AC
:1048D000F2BD2DE9F64182B0064688461F46002407
:1048E00056B972B64FF4A07080F31188BFF34F8FA2
:1048F000BFF36F8F62B6FEE7B8F1000F01D1306CE5
:1049000078B9022F2CD1F26B012A29D072B64FF45C
:10491000A07080F31188BFF34F8FBFF36F8F62B623
:10492000FEE772B64FF4A07080F31188BFF34F8F8B
:10493000BFF36F8F62B6FEE7039906F1100000F037
:10494000A7FC304600F013FA00F072FB40B94FF0BC
:104950008051DFF87C040160BFF34F8FBFF36F8F8E
:1049600001F09BFDB06BF16B884242D3022F40D027
:10497000039800283AD01CB96846012400F0F0FCE6
:1049800001F0A9FD00F04EFB01F087FD706C10F105
:10499000010F04BF00217164B16C11F1010F04BF5C
:1049A0000020B06401F097FD03A9684600F0ECFC1C
:1049B00070BB01F072FDB06BF16B884214BF002533
:1049C000012501F088FD002DB6D1304600F0CFF969
:1049D00000F02EFBC4E740B14FF08050DFF8F01339
:1049E0000860BFF34F8FBFF36F8F18E001F073FDC6
:1049F00013E03A464146304600F06FF9716A0029EB
:104A0000E9D006F1240000F076FC0128EDD1E3E7BF
:104A1000304600F0ACF900F00BFB002002E001F0A2
:104A20005AFD012004B0BDE8F0812DE9F0410400F9
:104A30000E4615461F460AD172B64FF4A07080F399
:104A40001188BFF34F8FBFF36F8F62B6FEE70EB9C9
:104A5000206C70BB022F02D1E16B012934D101F02F
:104A600065FDEFF3118872B64FF4A07080F31188E2
:104A7000BFF34F8FBFF36F8F62B6A06BE16B8842BD
:104A800001D3022F30D13A463146204600F025F9B5
:104A9000A16C11F1010F22D1606A18B304F1240056
:104AA00000F029FC002818BF002D1BD00120286031
:104AB00018E072B64FF4A07080F31188BFF34F8FE7
:104AC000BFF36F8F62B6FEE772B64FF4A07080F34B
:104AD0001188BFF34F8FBFF36F8F62B6FEE7A06CF4
:104AE000401CA064012000E0002088F31188BDE88C
:104AF000F081F8B504000D464FF4A07708D172B6E6
:104B000087F31188BFF34F8FBFF36F8F62B6FEE755
:104B1000206C40B172B687F31188BFF34F8FBFF39B
:104B20006F8F62B6FEE701F001FDEFF3118672B6FA
:104B300087F31188BFF34F8FBFF36F8F62B6A16BFE
:104B4000E06B814218D2A06B401CA063A16C11F1F4
:104B5000010F0CD1606A68B104F1240000F0CBFBB6
:104B6000002818BF002D05D00120286002E0A06CAD
:104B7000401CA064012000E00020ABE02DE9F641DC
:104B800082B0064688461F46002456B972B64FF4D6
:104B9000A07080F31188BFF34F8FBFF36F8F62B6A1
:104BA000FEE7B8F1000F3ED1306C00283BD072B662
:104BB0004FF4A07181F31188BFF34F8FBFF36F8F54
:104BC00062B6FEE7039900295BD01CB96846012450
:104BD00000F0C6FB01F07FFC00F024FA01F05DFC60
:104BE000706C10F1010F04BF00217164B16C11F100
:104BF000010F04BF0020B06401F06DFC03A96846FA
:104C000000F0C2FB00285ED101F047FCB06B451EEE
:104C1000AD41ED0F01F05FFC002D35D1304600F0C5
:104C2000A6F800F005FA01F038FCB06B0028C9D0F6
:104C3000F4684146304600F087F887B9B06B401EF3
:104C4000B063316811B900F0C8FC70603069B8B168
:104C500006F1100000F04FFB012811D107E0706A47
:104C6000F46068B106F1240000F045FB40B14FF05C
:104C70008051DFF85C010160BFF34F8FBFF36F8F8E
:104C8000CDE601F028FC23E0306830B901F005FCE6
:104C9000706800F023FC01F01EFC039906F124006B
:104CA00000F0F6FA304600F062F800F0C1F9002892
:104CB000B9D14FF08050DFF818110860BFF34F8F63
:104CC000BFF36F8FAFE7304600F051F800F0B0F956
:104CD0000020A7E686F31188F2BD7CB50546144690
:104CE0002A6C002642B9296849BB686800F035FC87
:104CF000002206466A6022E064B9A868FDF7D2F88F
:104D0000A868296C08446968A860884217D3286895
:104D1000A86014E0E868FDF7C5F8286CE96840422F
:104D20000144E9602A68914202D269680844E86057
:104D3000022C04D1A86B10B1A96B491EA963A86B02
:104D4000401CA863304676BD18B4026C0B4662B1B5
:104D50004468C1681144C160A14224BF0168C160B8
:104D6000C168184618BCFDF79DB811BC704738B52E
:104D7000044601F092FBA16C002919DD606AB8B10C
:104D800004F1240000F0B7FA08B100F038FBA16C80
:104D9000491EA164EFE72069A0B104F1100000F002
:104DA000AAFA08B100F02BFB606C401E606406E0BC
:104DB0004FF0FF35A56401F08EFB01F06EFB606CD7
:104DC0000028E8DC6564BDE8314001F084BB0000E8
:104DD00004ED00E02DE9F84F82465FEA0A008946BB
:104DE00016469B460AD172B64FF4A07080F3118824
:104DF000BFF34F8FBFF36F8F62B6FEE7DDF82880F9
:104E0000B8F1050F0AD372B64FF4A07080F3118881
:104E1000BFF34F8FBFF36F8F62B6FEE70C9C1CB9D8
:104E2000B00001F017FC0446002C00F089805C20E3
:104E300001F010FC050000F080802C63A522B10079
:104E4000204601F07FFC286B4946C146002200EB5A
:104E5000860005F13403041FE408E40008781870A4
:104E6000087850B191F801C083F801C0487820B1AA
:104E7000921C891C9B1C0A2AF0D30B9E002085F8EB
:104E80003D0005F14007C5F82C90F860281DC7F8D3
:104E90000890C9F1050901F0A0FB05F1180001F027
:104EA0009CFB2D610020C5F818905A466D62514652
:104EB000386178613876204601F08CFA286006B1B6
:104EC000356001F0EAFADFF84045E16E491CE16621
:104ED000606EC0BB6566E16E01293DD1204604F1DC
:104EE000800901F06DFB04F1140004F1940601F057
:104EF00067FB04F12800DFF814A501F061FB04F161
:104F00003C0001F05DFB04F1500001F059FB484604
:104F100001F056FB304601F053FB504601F050FBC8
:104F20000AF1140001F04CFB0AF1300001F048FBDB
:104F3000C4F86890CAF828600EE0204601F0E4FB4F
:104F40004FF0FF3530E0DFF8C414486C20B9626ED2
:104F5000D16A884528BF6566DFF8B0A40122DAF877
:104F60005000401CCAF850003860E86A616F824007
:104F7000114300EB800204EB82006167291D0125CB
:104F800001F02EFB01F0A7FADAF8440060B1616E7F
:104F9000CA6A424508D24FF08050DFF81C251060E5
:104FA000BFF34F8FBFF36F8F2846BDE8F28F80B5F8
:104FB00084B00020039000230290402201900FF261
:104FC0005C0100930FF24940FFF704FF012818D15C
:104FD00072B64FF4A07383F31188BFF34F8FBFF302
:104FE0006F8F62B60122DFF824144A640020DFF8D4
:104FF0001834186705B05DF804EB01F015BA05B078
:1050000000BD0028FBD172B64FF4A07181F3118866
:10501000BFF34F8FBFF36F8F62B6FEE749444C4535
:1050200000000000DFF8C805C16F491CC167704768
:1050300070B5DFF8D4530024E86F50B972B64FF45E
:10504000A07181F31188BFF34F8FBFF36F8F62B6EA
:10505000FEE701F022FAEA6F521EEA67E96F0029C3
:105060003FD1E86EE8B93CE0F168CE6806F118007F
:1050700001F0DCFA301D01F0D9FAF06A696F012203
:105080008240114300EB800205EB82006967311D0D
:1050900001F0A6FAF16A6B6ED86A814224BF012042
:1050A000A867DFF8686330680028DDD1B16C41B9CA
:1050B0000AE000F01AF808B10120A867B16C491E97
:1050C000B164B06C0028F4D1A96F012909D14FF067
:1050D0008050DFF8E42301241060BFF34F8FBFF34B
:1050E0006F8F01F0F8F9204670BD2DE9F041DFF82F
:1050F00018730026F86F002859D1396F491C396799
:10510000D7F87080B8F1000F18D1B96E086850B1A7
:1051100072B64FF4A07282F31188BFF34F8FBFF3C2
:105120006F8F62B6FEE7B96EDFF8E002826ABA6698
:105130008162C16C491CC16400F0C0F9DFF8CC4247
:10514000606D804526D31BE0281D01F06FFAA86A28
:1051500018B105F1180001F069FAE86A796F0122C7
:105160008240114300EB800207EB82007967291D22
:1051700001F036FAE96A7B6ED86A814228BF0126BF
:10518000B96E086880B1BA6ED168CD68686880452C
:10519000DAD26065786EC16A01EB81029200BB5879
:1051A000022B09D3012607E04FF0FF30F1E7DFF8CB
:1051B0005C02816C491C8164B86F00B101263046E5
:1051C000BDE8F08138B504000D4604BF8E48446E3A
:1051D00001F063F92565BDE8314001F07CB910B9F3
:1051E000DFF80C04406E026D002A1CBF0846104711
:1051F000002070471CB5844CE06F10B10121A167FD
:1052000013BD0021A167606E0121FFF7E8FF606E0A
:10521000016B606E0268914205D3606E00F134014B
:10522000606EFEF77AF8606E14220FF2D031006BD8
:1052300001F0AAFA28B1606E00F13401606EFEF749
:105240006CF8606FB0FA80F0C0F11F0000EB8001D5
:105250008900605850B972B64FF4A07181F311887B
:10526000BFF34F8FBFF36F8F62B6FEE7601800F198
:105270000802416849684160914204BF4968416041
:105280004068C1686166606E0021BDE81C40A6E709
:1052900038B50C4650B972B64FF4A07080F311883F
:1052A000BFF34F8FBFF36F8F62B6FEE7DFF8405357
:1052B0006A6E02F1180101F09FF9686E001D01F09D
:1052C000B5F930B9686E696F0122C06A82409143B6
:1052D000696714F1010F00D100E007E0686EBDE8D6
:1052E0003440011DDFF80C0301F07AB9286F201853
:1052F000BDE83240C4E038B5C168CC6854B972B674
:105300004FF4A07080F31188BFF34F8FBFF36F8FFE
:1053100062B6FEE704F118003B4D01F087F9E96F32
:1053200071B9201D01F082F9E06A696F01228240A3
:10533000114300EB80026967211D05EB820002E04A
:1053400004F11801314801F04BF9686EE26AC16A54
:10535000914200D201E0002032BD0120A86732BD99
:1053600050B972B64FF4A07080F31188BFF34F8F1D
:10537000BFF36F8F62B6FEE72449CA6C0260DFF8A4
:105380007022136F43607047F8B504000D460AD1D0
:1053900072B64FF4A07080F31188BFF34F8FBFF344
:1053A0006F8F62B6FEE755B972B64FF4A07080F306
:1053B0001188BFF34F8FBFF36F8F62B6FEE701F026
:1053C0006CF81148006F296811F1010F10D0626864
:1053D0000E4BDE6C2768BE4201D090420AD2831A7F
:1053E0008B4207D2081A101828602046FFF7B8FF32
:1053F000002400E0012401F06EF82046F2BD0120F7
:10540000DFF8EC11886770478C2800200823002003
:105410002DE9F041284D4FF08058DFF8D471DFF8C6
:10542000D8611EE0F86F401CF86771694C1EA441FA
:10543000E40FFFF7FDFDA4B901F02FF8306AC4684E
:10544000201D01F0F3F8F86E401EF866F16A491E5F
:10545000F16201F040F8206B01F056F9204601F0AE
:1054600053F9F06A0028DDD13968012905D9C5F85A
:105470000080BFF34F8FBFF36F8FFDF750FFF0E752
:1054800038B50446DFF86801416EDFF86C514C60B6
:10549000026F944206D2406E011DA86ABDE83440F6
:1054A00001F0AAB8416E806E091D01F0A5F8686D83
:1054B000844238BF6C6531BD04ED00E0DFF8302177
:1054C000DFF83411936E186810B94FF0FF3203E023
:1054D000926ED068C3685A684A65704738B5040050
:1054E0003AD0DFF80C51E06A696ECA6A904233D252
:1054F000A069002804D4696EC86AC0F10500A061E3
:10550000E16A606901EB810205EB8202904220D1E1
:10551000201D01F08BF858B9E16A01EB810292007D
:10552000A85828B96B6FE06A012181408B436B67F3
:10553000686E0122C06AE062696F8240114300EB2D
:1055400080026967211D05EB8200BDE8344001F04F
:1055500047B8696ECB6AE36231BD38B504460021B5
:10556000002C38D0E06C50B972B64FF4A07080F3C4
:105570001188BFF34F8FBFF36F8F62B6FEE7E26A09
:10558000401EA36CE0649A4225D020BB201DDFF8AA
:10559000605001F04BF858B9E16A01EB81029200CA
:1055A000A85828B96B6FE06A012181408B436B6773
:1055B000A06C0122E062C0F10500A061E06A696FA1
:1055C0008240114300EB800205EB82006967211DD8
:1055D00001F006F80121084632BDDFF81410486ECC
:1055E00018B1486EC26C521CC264486E704700000D
:1055F0008C2800203823002008230020A5A5A5A57D
:10560000A5A5A5A5A5A5A5A5A5A5A5A5A5A5A5A54A
:10561000002800D0704710B586B0DFF8540201684A
:105620000222DFF8504241F480710160006800F40A
:1056300080700090009901200192029001A90390CE
:1056400003200490204601F0D3F8002202212046D6
:1056500001F0C3F906B010BD08B9012204E070479B
:1056600008B9002200E070470221DFF8080201F0CB
:10567000B4B920B90221DFF8FC0101F0B4B97047D8
:105680000FF21821DFF8F02131F8101052F8200045
:1056900001F09CB970B5794986B0794C88424FF4D5
:1056A000807520693BD140F0800080222061216913
:1056B000744E01F08001059105981221009200209E
:1056C0000191029002210420039104906946304622
:1056D00001F08EF800956946304601F089F8206A9D
:1056E000002240F400002062216A01F400010591CB
:1056F0000598206840F4000020602168482021F4CB
:10570000000121600F2101F09AF9482001F0C0F951
:1057100000220F21492001F092F949203BE040F09E
:1057200002002061216901F0020105910598002124
:10573000009512200291019002200421039004910F
:10574000514D6946284601F053F84FF40070694600
:105750000090284601F04CF8216A002241F4001123
:105760002162206A00F4001005900599216841F437
:105770000011216020680F2120F4001020601F20FC
:1057800001F05DF91F2001F083F900220F21202094
:1057900001F055F9202001F07BF906B070BD10B57D
:1057A000044601F0E3FBC0B9344884420CBF3748DB
:1057B00037482060374860600020A0600120E0602A
:1057C000002020616061E06120622046FFF762FFF7
:1057D0002046BDE8104001F0B7B910BD78B50446C9
:1057E00083B00998089D4FF47A760190029620467E
:1057F000009501F0DDFA0CE078B5044683B0099815
:10580000089D4FF47A76019002962046009501F0AB
:1058100008FA050005D0204601F0EBF92046FFF715
:10582000BEFF284604B070BD00BF1448B7E707B5F7
:105830000A460121019102AB0093014601230F4862
:10584000FFF7DAFF03B000BD18B50A4683B00021A8
:1058500001238DF8081002AC01460193009407481B
:10586000FFF7BCFF9DF8080004B010BD0000000069
:10587000303802400020024094220020E82A002014
:1058800020380240001C024000040240005C00403E
:10589000005400403227914001F0A7BC00080008E6
:1058A0000008000038B5044608230822034900F028
:1058B00094FC00252046A4F8405032BDA1170108F1
:1058C00002461B48F0B4046800234CF240266408EA
:1058D00064000460174C25684FF6F0700540B5422F
:1058E0001FBF246820404CF27027B84212D1124DDD
:1058F000286878B911480468C4F30B04B4F58A6FBA
:105900001FBF0068C0F30B0040F28344A04208BFF1
:105910000B4C00D00B4C0125A560A0680028FCD1E1
:1059200022602268F0BC8A4208BF012318467047F3
:10593000002000E000ED00E0002004E00010005C2A
:10594000004C02580030024000BF1CB50446DFF88E
:10595000C4152160201D01F059FC002200202263A3
:10596000DFF8B415A2860122E08684F838200B5EA9
:10597000DFF8A80500220093B0F900300021201DB7
:1059800001F05EFC204616BDF8B584B004460D4615
:10599000684604F108010822FCF784FA29466846A3
:1059A00000F0F2FADDE90067CDE9026794F838000B
:1059B00002A9002804D0204600F01BF805B0F0BD75
:1059C000201D01F0B1FC05B0F0BD3EB50022DFF8AE
:1059D0004C450092DFF84035A25EB3F90050ADF8B7
:1059E00004206946ADF8065002689368984703B0F2
:1059F00030BD38B5044600230D4600936A46201D8D
:105A000001F01EFD009820B102462946204600F014
:105A100001F831BD2DE9F84F86B00E46B6F90410F5
:105A200080461446002900F09B80B6F90600002845
:105A300001E0E469002C40F09480F7E0B6F9023010
:105A40004B4510DAA9EB0301B6F90420ADF80000CC
:105A50004046ADF80230ADF80420ADF80610E2691A
:105A60006946FFF7D7FFB6F90000A8420DDA2A1AF7
:105A7000ADF80000ADF802906946ADF8042040464C
:105A8000ADF806B0E269FFF7C5FF3288B1888A1821
:105A900079190BB20FFA82FE73450EDA551BED1B16
:105AA000ADF800106946ADF802904046ADF80450DC
:105AB000ADF806B0E269FFF7ADFF7288F0880BEB36
:105AC0000903821818B20FFA82FC604514DAB6F99D
:105AD0000000A2EB0909B6F904E0A9EB0B09ADF847
